:1000000056C070C0D5C16EC06DC06CC06BC06AC038
:1000100069C068C067C066C065C064C063C062C0B4
:1000200061C00902220001010080140904000001DE
:1000300003000000092101010001223500070581AC
:10004000030800641201100100000008C016DF055B
:10005000000101020001140344004800540078002C
:10006000780012036F0062006400650076002E00C5
:10007000610074000403090405060900A1010520BC
:100080000A0E03751095015500B1020A690575083D
:1000900095015500B1020A340475109501550E8181
:1000A000030A330475109501550E8103C000112415
:1000B0001FBECFE5D1E0DEBFCDBF10E0A0E6B0E0CF
:1000C000E2EEFDE002C005900D92A236B107D9F72D
:1000D00010E0A2E6B0E001C01D92A03EB107E1F73A
:1000E00091D57DC68DCFCF93C62F2091880024FF58
:1000F00007C02091890038E823272093890003C096
:100100002AE520938800DC01EAE8F0E09C2F9E0FAE
:100110008D918193892F8E1B1816D4F36C2F8AE84A
:1001200090E042D1CC5FC0938800CF910895CF93E7
:10013000DF9360919900635067FDC0C08091960085
:10014000CCE0D0E0C81BD109C356DF4F80919500A9
:100150008D3209F09EC0683009F0AAC083EC80930C
:100160007D008AE58093600010926200888180762D
:1001700019F0CE01A6D27AC09A81109286008981A8
:10018000811106C01092870026E830E082E06AC044
:10019000853019F490939A0062C0863009F049C006
:1001A0008B81813019F484E490E01AC0823041F4EC
:1001B00082E290E0909398008093970082E235C0AD
:1001C0008330F1F4911108C084E790E09093980097
:1001D0008093970084E029C0913041F482E690E05A
:1001E000909398008093970082E11FC09230E1F4D1
:1001F00086E590E090939800809397008CE015C07E
:10020000813241F484E390E09093980080939700CA
:1002100089E00BC0823241F488E790E09093980027
:100220008093970085E301C080E090E490936200A2
:100230001DC0883069F0893019F490939C000FC07C
:100240008A3049F08B3059F48BE48093890007C0E1
:100250002CE930E002C026E830E081E003C026E867
:1002600030E080E030939800209397008F3F39F47E
:10027000988197FD8E8190E89093620007C09F81DE
:10028000911104C09E81981708F4892F8093610012
:100290000FC08091620087FF0BC0CE01E9D18F3F74
:1002A00021F48EE18093600003C0811110926100FF
:1002B00080919900181614F41092990080916000B2
:1002C00084FF45C0809161008F3F09F440C0C82F72
:1002D000893008F0C8E08C1B8093610080917D001C
:1002E00098E8892780937D00CC2329F1809197009D
:1002F000909198002091620026FF0BC0FC01AEE7B0
:10030000B0E02C2F2A0F34913D9331962A13FBCF66
:1003100009C0DC01EEE7F0E02C2F2E0F3D91319368
:100320002E13FCCF01962C2F2150820F911D9093FC
:100330009800809397006C2F8EE790E035D0CC5FCB
:10034000CC3019F08FEF80936100C093600084E19E
:1003500099B3937031F48150D9F710929A001092AA
:100360009400DF91CF910895909A8BB780618BBFF5
:100370008BE4809389008AE5809388000895A82FF4
:10038000B92F80E090E041E050EA609530E009C08C
:100390002D9182279795879510F084279527305EB9
:1003A000C8F36F5FA8F30895EADF8D939D930895D6
:1003B000CF93CFB7CF93DF93C395C99BE9F7C99B81
:1003C00011C0C99B0FC0C99B0DC0C99B0BC0C99B65
:1003D00009C0C99B07C0C99B05C0C99B03C0C99B75
:1003E00001C083C06F93C0919600DD27C356DF4FD5
:1003F0002F9320E400C065E0C99B03C02F916F914B
:10040000DECF0F931F934F9345E55F9355E53F93E1
:100410003BE011E009B303702EC06A95C9F031507A
:10042000D8F109B3037001130BC0089427952993E1
:1004300020E4555500F46A9569F701E069B30BC0F3
:10044000102F66E02695299320E4555518F3E2CF46
:100450000FEF69B30000162F455500F0404066E0ED
:1004600013700030E2F221F0000009B3037003C002
:1004700009B30370A9F0011309C00894279568F225
:1004800000C06A95A9F700E069B3E5CF102F66E0D8
:10049000269528F20000ECCF10E11ABF002719C002
:1004A0003B503195C31BD04010E11ABF0881033C7B
:1004B00009F10B34F9F0209194001981110F1213F6
:1004C000EDCF4A81441F093651F10D3211F0013E42
:1004D00029F700939B003F915F914F911F910F91DE
:1004E0002F916F91CAB7C4FD67CFDF91CF91CFBF76
:1004F000CF91189520919B00222369F310919900C8
:10050000112381F5343082F13093990020939500C6
:10051000109196003BE0311B3093960025C000916E
:1005200099000130FCF40AE54F7049F43091600005
:1005300034FD1BC000936000CDE7D0E01AC03091BD
:10054000880034FD12C000938800C9E8D0E011C0D3
:10055000052710E000C00BBB19C0052710E0221FC3
:1005600000C01DC04AE502C032ED432FC4E1D0E017
:1005700032E01AB31360D99A0BB31ABB53E020E8E8
:1005800069E420FF05270BBB2795179500C00000E5
:100590001C3FF0F66695A8F7A1F720FF05270BBBD7
:1005A0002795179500001C3FC0F629913A9541F711
:1005B0000C7F10919A00110F0BBBC651D04011F067
:1005C0001093940010E11ABF02601AB31C7F402FF1
:1005D0004C7F55E05A95F1F70BBB1ABB4BBB7BCF59
:1005E000BC0180E090E02BE43CE440E050E04FD3DD
:1005F00028E134EE43E050E06FD330936400209361
:10060000630081E090E09093660080936500089518
:10061000882329F0809163009091640004C0809148
:10062000650090916600909368008093670012BE09
:1006300088B7817088BF08958091670090916800A5
:100640000097A1F008B600FE08C0019790936800DB
:100650008093670088B7817088BF81E02091670030
:1006600030916800232B19F080E0089581E008950F
:100670002FEF2093990029E630E0462F643008F0F0
:1006800043E050E0BC01C901A1D390916B0094FFFD
:1006900003C08EB583608EBD93FF03C08EB58260AC
:1006A0008EBD80916B0085FF02C0D29A01C0D298A6
:1006B0008091690090916A0093DF1092990081E027
:1006C0000895FC018181813059F48381833079F46C
:1006D00089E690E0909398008093970083E00895D6
:1006E000893079F48381833061F48FEF089581300C
:1006F00041F48CE690E0909398008093970084E01A
:10070000089580E00895CF93DF931F92CDB7DEB7B1
:10071000898302C00CDDA8958091880084FFFACF00
:1007200061E0CE010196DFDC0F90DF91CF9108955B
:100730002F923F924F925F926F927F928F929F92F1
:10074000AF92BF92CF92DF92EF92FF920F931F93DF
:10075000CF93DF93CDB7DEB72F970FB6F894DEBFF8
:100760000FBECDBF19012A013B014C010F87A0E04C
:1007700021D319F480E3C7DF3CC0CE0101969E87E8
:100780008D879C878B87CE010B96ED85FE85119218
:10079000E817F907E1F78AE0A82EB12CC12CD12C7B
:1007A000E12CF12C00E010E09101A201B301C401A1
:1007B000B5D2205DED85FE852193FE87ED87910101
:1007C000A201B301C401ACD219012A013B014C01C1
:1007D000A0E0F0D201F74E01FBE08F0E911CF40176
:1007E00082914F0181118FDF8B859C858816990638
:1007F000B1F79F85992311F08AE001C080E22F961E
:100800000FB6F894DEBF0FBECDBFDF91CF911F9121
:100810000F91FF90EF90DF90CF90BF90AF909F909F
:100820008F907F906F905F904F903F902F906BCF05
:100830000F93CF93DF938091700090917100009798
:1008400061F4FADE882309F4B5C1DA9AD79ADF9801
:1008500080E0DEDE81E090E013C181309105C9F4D3
:10086000EBDE882309F4A6C181E0D2DED798DF9AB7
:100870008BB181708BB98BB180728BB91092720081
:100880001DBC1CBC109274001092730082E090E0BA
:10089000F7C08230910509F04BC05D9B1AC02091D2
:1008A00072002C3250F484B595B5E22FF0E0ED548F
:1008B000FF4F90917300891B80832F5F20937200FC
:1008C00084B595B590937400809373008BB180725A
:1008D0008BB9589B6FC1D79ADF9A80917200893289
:1008E00028F1DA9880916B0082FF14C081E40BDF5D
:1008F000C3EBD0E0299100E030E040E050E060E060
:1009000070E080E090E014DF20E0CF3DD20791F767
:1009100082E4F9DE809172008093DF0085E0E5E7F4
:10092000F0E0DF011D928A95E9F7A8C080E081C060
:100930008330910509F045C050917A005523F1F1BB
:1009400040917200411122C0809176009091750013
:10095000890F90917700890F90917800890F90917D
:100960007900981305C010927B0085E090E088C064
:1009700080917B00982F9F5F90937B00863008F4D6
:1009800059C010927A0010927B0054C0415040939D
:1009900072009091DF004095242F290F30E0892FBD
:1009A00090E08897281739070CF404C1F901ED5439
:1009B000FF4F8081581708F0FDC088C084E090E0A8
:1009C0005FC08430910509F09AC0409172004111D6
:1009D00064C08091750090917600A0917700B091ED
:1009E00078000197A109B1098E3F9F4FAF4FBF4FCC
:1009F00088F42091760080917500280F809177000F
:100A0000280F80917800280F81E090E030917900E4
:100A1000321711F080E090E095E0E5E7F0E0DF01CB
:100A20001D929A95E9F790917A009E3F69F48111A1
:100A300006C0EEDD1092710010927000BBC02091D4
:100A40007C008EEF90E00DC020917C00882329F07F
:100A500021111BC090937C0018C02223B1F0892F74
:100A600090E0821B910997FD019695958795820FDD
:100A700080937A008091DF008093720083E090E0A1
:100A8000909371008093700095C08091DF008093F7
:100A900072009F5F90937A008DC041504093720026
:100AA0009091DF004095242F290F30E0892F90E0AE
:100AB0008897281739070CF47DC0F901ED54FF4FD2
:100AC000908180917A00891708F074C0842F885D26
:100AD000E82FE695E695E695F0E0EB58FF4F877036
:100AE00027E030E0281B310981E090E0022E01C0B0
:100AF000880F0A94EAF79081982B90835BC0059742
:100B000009F058C080916B0080FD0BC081FD09C0C9
:100B10009091780020917600922B19F0816080935B
:100B20006B0040917700E42FE0784F774093770097
:100B300090916B008091750090FF18C0382F20E0D5
:100B400080917600B901682BCB016AE070E08DD00E
:100B500090936F0080936E00342F20E08091780096
:100B6000D901A82BCD016AE070E00CC090E064E6EA
:100B700070E07BD090936F0080936E00842F90E0A4
:100B800064E670E072D090936D0080936C00EE2369
:100B900059F080916C0090916D009195819591092B
:100BA00090936D0080936C00109271001092700011
:100BB00081E001C080E0DF91CF910F91089583B76C
:100BC000856083BF10926B0088E893E190936A0080
:100BD000809369008EE791E09093640080936300B6
:100BE00081E090E0909366008093650081E010DDE5
:100BF0008EB583608EBD8EB580648EBDD79ADF9A28
:100C0000DA980895DCDF28E288E190E00FB6F894E6
:100C1000A89581BD0FBE21BDA7DBD19A20E03FE0A2
:100C20000EC0A895822F632F4BD0911101C0DA9A84
:100C300087E893E10197F1F700C00000DA982150AE
:100C400081F7D1987894A895F3DD882361F080919D
:100C5000880084FF08C080916B0082FD04C064E0BE
:100C60008CE690E040DA63DAEECF5527002480FF6F
:100C700002C0060E571F660F771F6115710521F020
:100C800096958795009799F7952F802D0895FF27C2
:100C9000EE27BB27AA2760FF04C0A20FB31FE41FE3
:100CA000F51F220F331F441F551F96958795779583
:100CB000679589F70097760771F7CF01BD01089511
:100CC000991B79E004C0991F961708F0961B881F9E
:100CD0007A95C9F780950895A1E21A2EAA1BBB1B2D
:100CE000FD010DC0AA1FBB1FEE1FFF1FA217B307F8
:100CF000E407F50720F0A21BB30BE40BF50B661F0E
:100D0000771F881F991F1A9469F7609570958095D1
:100D100090959B01AC01BD01CF010895689401C07D
:100D2000E8948F929F92CF93DF9305D0DF91CF917C
:100D30009F908F90089588249924F401E401B0E4F1
:100D40001B2ED4019D158E049F04E007F10738F493
:100D5000FC014B01CA01B901AD019E011694220F9D
:100D6000331F441F551F661F771F881F991F881C3C
:100D7000991CEE1FFF1FCC1FDD1FAA1FBB1F8A146B
:100D80009B04EC05FD05CE05DF05A007B10748F083
:100D90008A189B08EC09FD09CE09DF09A00BB10BED
:100DA00021601A94E1F62EF49401AF01BE01CD0149
:100DB000000C08950024A7FD00942A173005400573
:100DC000500560057005800590050895FB01DC0164
:100DD00002C001900D9241505040D8F70895F89408
:020DE000FFCF43
:020DE2005AFFB6
:00000001FF
